:100000000C9446000C9465000C9465000C946500FB
:100010000C9465000C9465000C9465000C946500CC
:100020000C9465000C9465000C9496000C9465008B
:100030000C9465000C9465000C9465000C943101DF
:100040000C9465000C9465000C9465000C9465009C
:100050000C9465000C9465000C9465000C9465008C
:100060000C9465000C94BE000C9465000C94650023
:100070000C9465000C9465000C9465000C9465006C
:100080000C9465000C9465000C94650011241FBE4F
:10009000CFEFD0E1DEBFCDBF12E0A0E0B1E0E0E302
:1000A000FBE000E00BBF02C007900D92AA30B10741
:1000B000D9F712E0AAE0B2E001C01D92A431B10765
:1000C000E1F70E948F010C9496050C940000889A29
:1000D000899808958FE981BF83B7886083BF87B708
:1000E000826087BF089585B5836085BD87B78064CA
:1000F00087BF08951092890010928800EDE7F0E024
:10010000808180628083EAE8F0E08081806C808377
:100110000895EAE6F0E080818C6080830895EAE645
:10012000F0E0108280818860808308951F920F9292
:100130000FB60F920BB60F9211242F933F934F934C
:100140005F936F937F938F939F93AF93BF93EF933F
:10015000FF930E94B801FF91EF91BF91AF919F91E2
:100160008F917F916F915F914F913F912F910F9060
:100170000BBE0F900FBE0F901F9018951F920F92FD
:100180000FB60F920BB60F9211242F933F934F93FC
:100190005F936F937F938F939F93AF93BF93EF93EF
:1001A000FF932091000120FF11C080918000909169
:1001B000810090930D0280930C0280918A008F7BC6
:1001C00080938A002F5F2093000128C080918A00CD
:1001D000806480938A0060918000709181007093A8
:1001E0000B0260930A0221E02093000120910C028F
:1001F00030910D02621B730B882777FD8095982F35
:100200000E94EA0220E030E048E651E40E943E020B
:100210000E944803DC01CB010E94D90180910001BA
:10022000833060F080918A00887F80938A001092EA
:1002300089001092880081E080930001FF91EF9186
:10024000BF91AF919F918F917F916F915F914F91EE
:100250003F912F910F900BBE0F900FBE0F901F90EC
:1002600018951F920F920FB60F920BB60F92112492
:100270002F933F934F935F936F937F938F939F93AE
:10028000AF93BF93EF93FF93909882E00E94A301F6
:10029000EAE8F0E0808183608083FF91EF91BF9175
:1002A000AF919F918F917F916F915F914F913F910E
:1002B0002F910F900BBE0F900FBE0F901F901895AF
:1002C00012BE83B7816083BF909A80E00E94A30131
:1002D00008950E942D020E943702889A89980E94F0
:1002E000B4018FE981BF83B7886083BF87B782601D
:1002F00087BF85B5836085BD87B7806487BF10924F
:10030000890010928800EDE7F0E0808180628083B0
:10031000EAE8F0E08081806C8083789408950E9400
:100320006901809163008130E1F70E946001809152
:1003300063008823E1F7F5CF87B3806F87BB81B374
:10034000806F81BB089592B39F7092BB98B39F70EA
:1003500098BB22B3982F907F922B92BB98B3829533
:10036000807F982B98BB08958AB38FEF8ABB08953E
:100370001BBA2BB39091130230911202E32FF0E0DD
:10038000E25FFD4F40812068892F8295807F822B1C
:10039000842B8BBB9F5F909313029150315030930D
:1003A0001202933028F01092130283E0809312021D
:1003B00008959C0187E22031380758F5C90168EE9D
:1003C00073E00E943805CB016AE070E00E943805B6
:1003D00080930E02C90164E670E00E943805CB01EB
:1003E0006AE070E00E94380580930F02C9016AE05C
:1003F00070E00E943805CB016AE070E00E94380589
:1004000080931002C9016AE070E00E943805809371
:100410001102089580910E0290E028EE33E0A901C8
:10042000849F9001859F300D949F300D1124809101
:100430000F02409110027091110264E6869FC00184
:100440001124280F391F270F311D8AE0489FA00172
:100450001124240F351FC9010895E4E6F0E08081DE
:100460008F61808308958091630090E0089581B347
:10047000806F81BB87B3806F87BB0895A8E1B0E030
:10048000E4E4F2E00C94670569837A838B839C83B0
:100490002D833E834F835887B9E0EB2EF12CEC0E71
:1004A000FD1ECE010196B7010E94C0048E010F5EB1
:1004B0001F4FCE010596B8010E94C0042985223045
:1004C00008F47EC03989323010F4B8017CC08A85C6
:1004D0009A8989278A87243011F0223031F4231732
:1004E00009F06EC061E071E06EC0343039F41D86F1
:1004F0001E861F86188A1C861B8604C0323021F493
:1005000084E08987B7015FC02B853C858B899C89F6
:10051000281B390B3C872B87ED84FE840F851889B7
:10052000AD88BE88CF88D88CEA14FB040C051D0565
:1005300040F4EE0CFF1C001F111F215030403C877F
:100540002B8720E030E040E050E080E090E0A0E049
:10055000B0E460E070E0EA14FB040C051D0540F017
:10056000282B392B4A2B5B2BEA18FB080C091D0999
:10057000B695A79597958795EE0CFF1C001F111F48
:100580006F5F7F4F6F31710531F7DA01C9018F77E6
:100590009070A070B07080349105A105B10561F430
:1005A00027FD0AC0E114F1040105110529F0205CC2
:1005B0003F4F4F4F5F4F20782D873E874F87588B97
:1005C000BE01675F7F4FCB010E94EB036896EAE0B4
:1005D0000C948305A8E0B0E0E0EFF2E00C9468052D
:1005E0009B01AC0183E08983DA01C9018827B7FD4B
:1005F00083959927AA27BB27B82E211531054105D8
:10060000510519F482E089833AC08823A9F020308B
:1006100080E0380780E0480780E8580729F460E068
:1006200070E080E09FEC30C0EE24FF248701E21AE6
:10063000F30A040B150B02C079018A018EE1C82E62
:10064000D12CDC82CB82ED82FE820F831887C80119
:10065000B7010E949C0301971816190684F4082E0E
:1006600004C0EE0CFF1C001F111F0A94D2F7ED828C
:10067000FE820F831887C81AD90ADC82CB82BA821D
:10068000CE0101960E94EB032896E9E00C948405C4
:10069000ACE0B0E0EEE4F3E00C946F0569837A839C
:1006A0008B839C83CE010196BE016B5F7F4F0E94BE
:1006B000C0048D81823061F1823050F1843021F4A8
:1006C0008E81882351F12EC02F81388537FD20C0BF
:1006D0006E812F3131051CF06623F9F023C08EE1C5
:1006E00090E0821B930B29853A854B855C8504C07D
:1006F00056954795379527958A95D2F76623B1F099
:1007000050954095309521953F4F4F4F5F4F0EC00C
:1007100020E030E040E050E009C02FEF3FEF4FEF26
:100720005FE704C020E030E040E050E8B901CA01D2
:100730002C96E2E00C948B05EF92FF920F931F939F
:100740007B018C0180E0E81680E0F80681E0080774
:1007500080E0180788F48FEFE816F1040105110511
:1007600031F028F088E090E0A0E0B0E017C080E031
:1007700090E0A0E0B0E012C080E0E81680E0F8066B
:1007800080E0080781E0180728F088E190E0A0E009
:10079000B0E004C080E190E0A0E0B0E020E230E012
:1007A00040E050E0281B390B4A0B5B0B04C0169548
:1007B0000795F794E7948A95D2F7F701E75FFE4F24
:1007C0008081281B310941095109C9011F910F91ED
:1007D000FF90EF900895DF92EF92FF920F931F9397
:1007E000FC01E480F58006811781D1808081823010
:1007F00048F480E090E0A0E1B0E0E82AF92A0A2B72
:100800001B2BA5C0843009F49FC0823021F4EE2454
:10081000FF24870105C0E114F1040105110519F455
:10082000E0E0F0E096C0628173819FEF6238790763
:100830000CF05BC022E83FEF261B370B2A31310555
:100840002CF020E030E040E050E02AC0B801A701E1
:10085000022E04C076956795579547950A94D2F76E
:1008600081E090E0A0E0B0E004C0880F991FAA1FCB
:10087000BB1F2A95D2F70197A109B1098E219F21AB
:10088000A023B1230097A105B10521F081E090E0FC
:10089000A0E0B0E09A01AB01282B392B4A2B5B2B4F
:1008A000DA01C9018F779070A070B0708034910523
:1008B000A105B10539F427FF09C0205C3F4F4F4F18
:1008C0005F4F04C0215C3F4F4F4F5F4FE0E0F0E0CF
:1008D0002030A0E03A07A0E04A07A0E45A0710F051
:1008E000E1E0F0E079018A0127C06038710564F524
:1008F000FB01E158FF4FD801C7018F779070A070BE
:10090000B07080349105A105B10539F4E7FE0DC042
:1009100080E490E0A0E0B0E004C08FE390E0A0E0CD
:10092000B0E0E80EF91E0A1F1B1F17FF05C0169541
:100930000795F794E794319687E016950795F79415
:10094000E7948A95D1F705C0EE24FF248701EFEFE5
:10095000F0E06E2F679566276795902F9F77D79465
:10096000DD24D7948E2F8695492F462B582F5D294D
:10097000B701CA011F910F91FF90EF90DF9008958A
:10098000FC01DB01408151812281622F6F7770E091
:10099000221F2227221F9381892F880F822B282F25
:1009A00030E0991F9927991F11969C931197211553
:1009B0003105A9F5411551056105710511F482E074
:1009C00037C082E89FEF13969C938E9312979A01FB
:1009D000AB0167E0220F331F441F551F6A95D1F703
:1009E00083E08C930DC0220F331F441F551F1296B6
:1009F0008D919C911397019713969C938E931297C8
:100A0000203080E0380780E0480780E4580758F33A
:100A100014962D933D934D935C93179708952F3F14
:100A2000310579F4411551056105710519F484E02A
:100A30008C93089564FF03C081E08C9312C01C92D4
:100A400010C02F57304013963C932E93129783E09B
:100A50008C9387E0440F551F661F771F8A95D1F747
:100A6000706414964D935D936D937C9317970895DE
:100A700097FB092E07260AD077FD04D00CD006D0AC
:100A800000201AF4709561957F4F0895F6F79095C0
:100A900081959F4F0895AA1BBB1B51E107C0AA1F58
:100AA000BB1FA617B70710F0A61BB70B881F991F0F
:100AB0005A95A9F780959095BC01CD0108952F9284
:100AC0003F924F925F926F927F928F929F92AF92DE
:100AD000BF92CF92DF92EF92FF920F931F93CF932B
:100AE000DF93CDB7DEB7CA1BDB0B0FB6F894DEBFC2
:100AF0000FBECDBF09942A88398848885F846E84E8
:100B00007D848C849B84AA84B984C884DF80EE8031
:100B1000FD800C811B81AA81B981CE0FD11D0FB63A
:100B2000F894DEBF0FBECDBFED010895F894FFCF5E
:100B300001000000000000000000010202030303A6
:100B4000030404040404040404050505050505055F
:100B5000050505050505050505060606060606063E
:100B60000606060606060606060606060606060625
:100B7000060606060606060606070707070707070E
:100B800007070707070707070707070707070707F5
:100B900007070707070707070707070707070707E5
:100BA00007070707070707070707070707070707D5
:100BB00007070707070707070708080808080808BE
:100BC00008080808080808080808080808080808A5
:100BD0000808080808080808080808080808080895
:100BE0000808080808080808080808080808080885
:100BF0000808080808080808080808080808080875
:100C00000808080808080808080808080808080864
:100C10000808080808080808080808080808080854
:100C20000808080808080808080808080808080844
:0A0C30000808080808080808080072
:00000001FF
