:100000000C9446000C9465000C94A8030C946500B5
:100010000C9465000C9465000C9465000C946500CC
:100020000C9465000C94F0020C9468040C94650028
:100030000C9465000C9465000C9465000C944D03C1
:100040000C9465000C9465000C9465000C9465009C
:100050000C9465000C9465000C9465000C9465008C
:100060000C9465000C9406040C9465000C946500D7
:100070000C9465000C9465000C9465000C9465006C
:100080000C9465000C9465000C94650011241FBE4F
:10009000CFEFD0E1DEBFCDBF11E0A0E0B1E0E2E7FD
:1000A000F9E000E00BBF02C007900D92A430B10749
:1000B000D9F711E0A4E0B1E001C01D92A231B1076F
:1000C000E1F70E9422030C94B7040C940000E2E6CE
:1000D000F0E080818860808320EA3FE0C9010197D9
:1000E000F1F78081877F8083C9010197F1F7089537
:1000F0001F93182FE2E6F0E080818D7F808380815E
:100100008B7F80838081877F808383B18F7083B969
:1001100093B1812F807F892B83B90E94670083B1BF
:100120008F7083B983B11295107F812B83B90E94A0
:1001300067001F91089581E00E94780008951F9341
:10014000182FE2E6F0E080818260808380818B7FDF
:1001500080838081877F808383B18F7083B993B1DF
:10016000812F807F892B83B90E94670083B18F70B4
:1001700083B983B11295107F812B83B90E946700E8
:100180001F9108950F931F9382B1806F82B9E1E6AA
:10019000F0E080818E608083E2E6F0E080818B7FFA
:1001A000808380E30E94780080E29EE40197F1F76B
:1001B00080E30E94780000EA1FE0C8010197F1F790
:1001C00080E30E947800C8010197F1F780E20E9465
:1001D0007800C8010197F1F70E9467000E9467004C
:1001E0000E94670088E20E9478008CE00E947800FC
:1001F00086E00E94780081E00E94780082E00E9400
:1002000078001F910F910895EF92FF920F931F9323
:10021000CF93DF93C0E0D0E090E8E92EF12C082FD7
:1002200010E0C7010C2E02C0959587950A94E2F75D
:1002300080239123892B11F081E301C080E30E9488
:100240009F002196C830D10561F7DF91CF911F91B2
:100250000F91FF90EF900895CF93DF93EC0187E229
:10026000C031D80770F0CE0160E177E20E949004BF
:10027000CB016AE070E00E949004805D0E949F00C4
:1002800004C083E0C83ED80770F0CE0168EE73E08A
:100290000E949004CB016AE070E00E949004805DAF
:1002A0000E949F0003C0C436D10570F0CE0164E601
:1002B00070E00E949004CB016AE070E00E9490041C
:1002C000805D0E949F0003C0CA30D10568F0CE0156
:1002D0006AE070E00E949004CB016AE070E00E9446
:1002E0009004805D0E949F00CE016AE070E00E9451
:1002F0009004805D0E949F00DF91CF910895CF937D
:10030000DF93EC0187E2C031D80770F0CE0160E1E5
:1003100077E20E949004CB016AE070E00E949004B2
:10032000805D0E949F0004C083E0C83ED80770F043
:10033000CE0168EE73E00E949004CB016AE070E0A9
:100340000E949004805D0E949F0003C0C436D105C6
:1003500068F0CE0164E670E00E949004CB016AE090
:1003600070E00E949004805D0E949F00CE016AE0D0
:1003700070E00E949004CB016AE070E00E9490045B
:10038000805D0E949F008EE20E949F00CE016AE085
:1003900070E00E949004805D0E949F00DF91CF91E9
:1003A0000895813051F0813028F0823049F0833057
:1003B00061F409C0862F805808C0862F805405C07C
:1003C000862F805702C0862F80530E9478000895A0
:1003D0001F93CF93DF93EC0110E01AC00E949F009F
:1003E0001F5F1F3161F0103218F41F3081F405C017
:1003F0001F3239F01F3359F406C081E005C082E096
:1004000003C083E001C080E060E00E94D10121963A
:100410008881882319F7DF91CF911F9108951F9349
:1004200060E00E94D10110E080E20E949F001F5F07
:100430001F30D1F71F91089580E40E9478008AE070
:100440000E949F008FE10E949F008FE10E949F0009
:100450008EE00E949F0084E00E949F0080E00E9446
:100460009F0080E00E949F0080E00E949F0080E843
:100470000E94780088E40E9478008CE00E949F002F
:100480008EE10E949F008CE00E949F008EE10E94FE
:100490009F008CE00E949F008CE00E949F0082E100
:1004A0000E949F008BE10E949F0080E80E947800DC
:1004B0000895E4E6F0E080818F618083089587B33A
:1004C000806F87BB81B3806F81BB089592B39F70AB
:1004D00092BB98B39F7098BB22B3982F907F922BBA
:1004E00092BB98B38295807F982B98BB08958AB36E
:1004F0008FEF8ABB08951BBA2BB3909111013091F5
:100500001001E32FF0E0EC5FFE4F40812068892F5F
:100510008295807F822B842B8BBB9F5F90931101F0
:100520009150315030931001933028F01092110106
:1005300083E08093100108959C0187E22031380701
:1005400058F5C90168EE73E00E94A404CB016AE08B
:1005500070E00E94A40480930401C90164E670E085
:100560000E94A404CB016AE070E00E94A40480937E
:100570000501C9016AE070E00E94A404CB016AE0B1
:1005800070E00E94A40480930601C9016AE070E053
:100590000E94A4048093070108958091040190E0D3
:1005A00028EE33E0A901849F9001859F300D949F30
:1005B000300D1124809105014091060170910701D1
:1005C00064E6869FC0011124280F391F270F311DB3
:1005D0008AE0489FA0011124240F351FC901089506
:1005E0001F920F920FB60F9211248F939F938091B9
:1005F00008019091090101969093090180930801E7
:100600009F918F910F900FBE0F901F90189587B3F9
:10061000806F87BB81B3806F81BB889A89988AB3CA
:100620008FEF8ABB85B5816085BD87B7806487BF42
:10063000EAE6F0E080818C60808389B7826089BFC0
:10064000789408950E94070380917D0080628093D2
:100650007D0080918A00816C80938A00FFCF8FE9B2
:1006600081BF13BE83B7886083BF87B7826087BFAF
:100670000895889A89980895EAE6F0E080818C6070
:10068000808389B7826089BF089512BE83B7816075
:1006900083BF81E00E94660208951F920F920FB6F9
:1006A0000F920BB60F9211242F933F934F935F93AA
:1006B0006F937F938F939F93AF93BF93EF93FF932A
:1006C00087B78D7F87BF82E00E946602FF91EF911E
:1006D000BF91AF919F918F917F916F915F914F915A
:1006E0003F912F910F900BBE0F900FBE0F901F9058
:1006F000189587B78D7F87BF089585B5826085BDC2
:100700000895EAE6F0E080818C6080830895EAE64F
:10071000F0E0108280818860808308958EE091E00F
:10072000089585B5816085BD87B7806487BF0895CA
:1007300015BC089580E060E00E94D101809108011D
:10074000909109010E942C0108950E949A03089536
:100750001F920F920FB60F920BB60F9211242F9388
:100760003F934F935F936F937F938F939F93AF9339
:10077000BF93EF93FF9318BE2091010130910201C6
:10078000A9014F5F5F4F20FF12C085B5826085BD14
:1007900010926A0080916A00886080936A0050938A
:1007A000020140930101822F0E94660211C015BC14
:1007B00010926A0080916A00886080936A0050936A
:1007C000020140930101822F0E9466020E949A0357
:1007D000FF91EF91BF91AF919F918F917F916F9119
:1007E0005F914F913F912F910F900BBE0F900FBED5
:1007F0000F901F901895EDE7F0E080818062808374
:10080000EAE8F0E08081816C808308951F920F9266
:100810000FB60F920BB60F9211240F931F932F93C5
:100820003F934F935F936F937F938F939F93AF9378
:10083000BF93EF93FF933091000130FF13C080917D
:1008400080009091810090930B0180930A01209188
:100850008A002F7B20938A003F5F309300010E9423
:10086000660221C080918A00806480938A00009192
:1008700080001091810010930D0100930C0181E024
:100880008093000180910A0190910B01081B190BC4
:10089000802F0E946602C8016AE370E00E94900403
:1008A000CB010E949C02FF91EF91BF91AF919F916C
:1008B0008F917F916F915F914F913F912F911F91F8
:1008C0000F910F900BBE0F900FBE0F901F901895B9
:1008D0001F920F920FB60F920BB60F9211242F9307
:1008E0003F934F935F936F937F938F939F93AF93B8
:1008F000BF93EF93FF930E947B02FF91EF91BF9113
:10090000AF919F918F917F916F915F914F913F91A7
:100910002F910F900BBE0F900FBE0F901F90189548
:10092000AA1BBB1B51E107C0AA1FBB1FA617B70715
:1009300010F0A61BB70B881F991F5A95A9F7809531
:100940009095BC01CD01089597FB092E07260AD08A
:1009500077FD04D0E5DF06D000201AF4709561958C
:100960007F4F0895F6F7909581959F4F0895F894DD
:02097000FFCFB7
:04097200010100007F
:00000001FF
