:100000000C9446000C9465000C94C1030C9465009C
:100010000C9465000C9465000C9465000C946500CC
:100020000C9465000C94F0020C94A3040C946500ED
:100030000C9465000C9465000C9465000C946303AB
:100040000C9465000C9465000C9465000C9465009C
:100050000C9465000C9465000C9465000C9465008C
:100060000C9465000C9423040C9465000C946500BA
:100070000C9465000C9465000C9465000C9465006C
:100080000C9465000C9465000C94650011241FBE4F
:10009000CFEFD0E1DEBFCDBF12E0A0E0B1E0E0E8FD
:1000A000F0E100E00BBF02C007900D92AC30B10749
:1000B000D9F712E0ACE0B2E001C01D92AA31B1075D
:1000C000E1F70E9448030C943E080C940000E2E61D
:1000D000F0E080818860808320EA3FE0C9010197D9
:1000E000F1F78081877F8083C9010197F1F7089537
:1000F0001F93182FE2E6F0E080818D7F808380815E
:100100008B7F80838081877F808383B18F7083B969
:1001100093B1812F807F892B83B90E94670083B1BF
:100120008F7083B983B11295107F812B83B90E94A0
:1001300067001F91089581E00E94780008951F9341
:10014000182FE2E6F0E080818260808380818B7FDF
:1001500080838081877F808383B18F7083B993B1DF
:10016000812F807F892B83B90E94670083B18F70B4
:1001700083B983B11295107F812B83B90E946700E8
:100180001F9108950F931F9382B1806F82B9E1E6AA
:10019000F0E080818E608083E2E6F0E080818B7FFA
:1001A000808380E30E94780080E29EE40197F1F76B
:1001B00080E30E94780000EA1FE0C8010197F1F790
:1001C00080E30E947800C8010197F1F780E20E9465
:1001D0007800C8010197F1F70E9467000E9467004C
:1001E0000E94670088E20E9478008CE00E947800FC
:1001F00086E00E94780081E00E94780082E00E9400
:1002000078001F910F910895EF92FF920F931F9323
:10021000CF93DF93C0E0D0E090E8E92EF12C082FD7
:1002200010E0C7010C2E02C0959587950A94E2F75D
:1002300080239123892B11F081E301C080E30E9488
:100240009F002196C830D10561F7DF91CF911F91B2
:100250000F91FF90EF900895CF93DF93EC0187E229
:10026000C031D80770F0CE0160E177E20E94E0076C
:10027000CB016AE070E00E94E007805D0E949F0071
:1002800004C083E0C83ED80770F0CE0168EE73E08A
:100290000E94E007CB016AE070E00E94E007805D09
:1002A0000E949F0003C0C436D10570F0CE0164E601
:1002B00070E00E94E007CB016AE070E00E94E00776
:1002C000805D0E949F0003C0CA30D10568F0CE0156
:1002D0006AE070E00E94E007CB016AE070E00E94F3
:1002E000E007805D0E949F00CE016AE070E00E94FE
:1002F000E007805D0E949F00DF91CF910895CF932A
:10030000DF93EC0187E2C031D80770F0CE0160E1E5
:1003100077E20E94E007CB016AE070E00E94E0070C
:10032000805D0E949F0004C083E0C83ED80770F043
:10033000CE0168EE73E00E94E007CB016AE070E056
:100340000E94E007805D0E949F0003C0C436D10573
:1003500068F0CE0164E670E00E94E007CB016AE03D
:1003600070E00E94E007805D0E949F00CE016AE07D
:1003700070E00E94E007CB016AE070E00E94E007B5
:10038000805D0E949F008EE20E949F00CE016AE085
:1003900070E00E94E007805D0E949F00DF91CF9196
:1003A0000895813051F0813028F0823049F0833057
:1003B00061F409C0862F805808C0862F805405C07C
:1003C000862F805702C0862F80530E9478000895A0
:1003D0001F93CF93DF93EC0110E01AC00E949F009F
:1003E0001F5F1F3161F0103218F41F3081F405C017
:1003F0001F3239F01F3359F406C081E005C082E096
:1004000003C083E001C080E060E00E94D10121963A
:100410008881882319F7DF91CF911F9108951F9349
:1004200060E00E94D10110E080E20E949F001F5F07
:100430001F30D1F71F91089580E40E9478008AE070
:100440000E949F008FE10E949F008FE10E949F0009
:100450008EE00E949F0084E00E949F0080E00E9446
:100460009F0080E00E949F0080E00E949F0080E843
:100470000E94780088E40E9478008CE00E949F002F
:100480008EE10E949F008CE00E949F008EE10E94FE
:100490009F008CE00E949F008CE00E949F0082E100
:1004A0000E949F008BE10E949F0080E80E947800DC
:1004B0000895E4E6F0E080818F618083089587B33A
:1004C000806F87BB81B3806F81BB089592B39F70AB
:1004D00092BB98B39F7098BB22B3982F907F922BBA
:1004E00092BB98B38295807F982B98BB08958AB36E
:1004F0008FEF8ABB08951BBA2BB3909119023091EC
:100500001802E32FF0E0E45FFD4F40812068892F5F
:100510008295807F822B842B8BBB9F5F90931902E7
:100520009150315030931802933028F010921902F4
:1005300083E08093180208959C0187E220313807F8
:1005400058F5C90168EE73E00E94F407CB016AE038
:1005500070E00E94F40780930C02C90164E670E029
:100560000E94F407CB016AE070E00E94F4078093D8
:100570000D02C9016AE070E00E94F407CB016AE055
:1005800070E00E94F40780930E02C9016AE070E0F7
:100590000E94F40780930F02089580910C0290E06E
:1005A00028EE33E0A901849F9001859F300D949F30
:1005B000300D112480910D0240910E0270910F02B6
:1005C00064E6869FC0011124280F391F270F311DB3
:1005D0008AE0489FA0011124240F351FC901089506
:1005E0001F920F920FB60F9211248F939F938091B9
:1005F00010029091110201969093110280931002C3
:100600009F918F910F900FBE0F901F90189587B3F9
:10061000806F87BB81B3806F81BB889A89988AB3CA
:100620008FEF8ABB8FE981BF83B7886083BF87B7AD
:10063000826087BF85B5836085BD87B7806487BFCB
:10064000EAE6F0E080818C60808389B7826089BFB0
:10065000789408958FE981BF83B7886083BF87B797
:10066000826087BF0895889A89980895EAE6F0E045
:1006700080818C60808389B7826089BF089512BEB3
:1006800083B7816083BF909A80E00E9466020895DC
:100690000E940703109289001092880080917D00CB
:1006A000806280937D0080918A00806C80938A00B4
:1006B000809163008130E1F70E943F0380916300E5
:1006C0008823E1F7F5CF1F920F920FB60F920BB66A
:1006D0000F9211242F933F934F935F936F937F93C8
:1006E0008F939F93AF93BF93EF93FF93909882E084
:1006F0000E946602EAE8F0E0808183608083FF91D7
:10070000EF91BF91AF919F918F917F916F915F9189
:100710004F913F912F910F900BBE0F900FBE0F90F6
:100720001F90189587B78D7F87BF089585B5826024
:1007300085BD0895EAE6F0E080818C6080830895AD
:10074000EAE6F0E01082808188608083089586E187
:1007500092E0089585B5836085BD87B7806487BFC3
:10076000089515BC089580E060E00E94D101809159
:100770001002909111020E942C0108950E94B3036F
:1007800008951F920F920FB60F920BB60F9211247D
:100790002F933F934F935F936F937F938F939F9389
:1007A000AF93BF93EF93FF9318BE20910101309157
:1007B0000201A9014F5F5F4F20FF12C085B5826023
:1007C00085BD10926A0080916A00886080936A00FB
:1007D0005093020140930101822F0E94660211C0D2
:1007E00015BC10926A0080916A00886080936A004C
:1007F0005093020140930101822F0E9466020E94E1
:10080000B303FF91EF91BF91AF919F918F917F9132
:100810006F915F914F913F912F910F900BBE0F9071
:100820000FBE0F901F9018951092890010928800AB
:10083000EDE7F0E0808180628083EAE8F0E080818B
:10084000806C808308951F920F920FB60F920BB6A3
:100850000F921124EF92FF920F931F932F933F93C8
:100860004F935F936F937F938F939F93AF93BF93B8
:10087000EF93FF933091000130FF13C0809180000F
:1008800090918100909313028093120220918A002C
:100890002F7B20938A003F5F309300010E94660205
:1008A0002BC080918A00806480938A00E090800051
:1008B000F0908100F0921502E092140281E08093A2
:1008C00000018091120290911302E81AF90A8E2D0C
:1008D0000E94660200E010E0C801B7010E94CB054B
:1008E00020E030E048E651E40E94CB040E94770506
:1008F000DC01CB010E949C0280910001833060F0FA
:1009000080918A00887F80938A00109289001092DB
:10091000880081E080930001FF91EF91BF91AF913A
:100920009F918F917F916F915F914F913F912F9107
:100930001F910F91FF90EF900F900BBE0F900FBE85
:100940000F901F9018951F920F920FB60F920BB633
:100950000F9211242F933F934F935F936F937F9345
:100960008F939F93AF93BF93EF93FF930E947B026C
:10097000FF91EF91BF91AF919F918F917F916F9177
:100980005F914F913F912F910F900BBE0F900FBE33
:100990000F901F901895A8E1B0E0E1EDF4E00C9401
:1009A0000F0869837A838B839C832D833E834F83D7
:1009B0005887B9E0EB2EF12CEC0EFD1ECE0101960E
:1009C000B7010E9468078E010F5E1F4FCE0105968A
:1009D000B8010E9468072985223008F47EC0398951
:1009E000323010F4B8017CC08A859A8989278A87B9
:1009F000243011F0223031F4231709F06EC063E087
:100A000071E06EC0343039F41D861E861F86188A48
:100A10001C861B8604C0323021F484E08987B7012C
:100A20005FC02B853C858B899C89281B390B3C87B3
:100A30002B87ED84FE840F851889AD88BE88CF880A
:100A4000D88CEA14FB040C051D0540F4EE0CFF1CC9
:100A5000001F111F215030403C872B8720E030E0E1
:100A600040E050E080E090E0A0E0B0E460E070E0C2
:100A7000EA14FB040C051D0540F0282B392B4A2BEA
:100A80005B2BEA18FB080C091D09B695A7959795ED
:100A90008795EE0CFF1C001F111F6F5F7F4F6F319A
:100AA000710531F7DA01C9018F779070A070B070CD
:100AB00080349105A105B10561F427FD0AC0E11458
:100AC000F1040105110529F0205C3F4F4F4F5F4FA6
:100AD00020782D873E874F87588BBE01675F7F4FF9
:100AE000CB010E9493066896EAE00C942B08ACE0D8
:100AF000B0E0EDE7F5E00C94170869837A838B8307
:100B00009C83CE010196BE016B5F7F4F0E946807F8
:100B10008D81823061F1823050F1843021F48E81F8
:100B2000882351F12EC02F81388537FD20C06E817A
:100B30002F3131051CF06623F9F023C08EE190E0DF
:100B4000821B930B29853A854B855C8504C056959D
:100B50004795379527958A95D2F76623B1F050953A
:100B60004095309521953F4F4F4F5F4F0EC020E08D
:100B700030E040E050E009C02FEF3FEF4FEF5FE77C
:100B800004C020E030E040E050E8B901CA012C96F2
:100B9000E2E00C943308A8E0B0E0E1EDF5E00C945D
:100BA0000F087B018C01611571058105910519F410
:100BB00082E0898360C083E089838EE1C82ED12CD6
:100BC000DC82CB82ED82FE820F831887C801B701D9
:100BD0000E944406FC013197F7FF3BC022273327D0
:100BE0002E1B3F0B57016801022E04C0D694C794F8
:100BF000B794A7940A94D2F740E050E060E070E028
:100C000081E090E0A0E0B0E004C0880F991FAA1F27
:100C1000BB1F2A95D2F70197A109B1098E219F2107
:100C2000A023B1230097A105B10521F041E050E0D8
:100C300060E070E04A295B296C297D294D835E8341
:100C40006F8378878EE190E08E1B9F0B9C838B8354
:100C500012C0309781F00E2E04C0EE0CFF1C001F56
:100C6000111F0A94D2F7ED82FE820F831887CE1AE5
:100C7000DF0ADC82CB821A82CE0101960E949306A3
:100C80002896EAE00C942B08EF92FF920F931F93A3
:100C90007B018C0180E0E81680E0F80681E008071F
:100CA00080E0180788F48FEFE816F10401051105BC
:100CB00031F028F088E090E0A0E0B0E017C080E0DC
:100CC00090E0A0E0B0E012C080E0E81680E0F80616
:100CD00080E0080781E0180728F088E190E0A0E0B4
:100CE000B0E004C080E190E0A0E0B0E020E230E0BD
:100CF00040E050E0281B390B4A0B5B0B04C01695F3
:100D00000795F794E7948A95D2F7F701E55FFE4FD0
:100D10008081281B310941095109C9011F910F9197
:100D2000FF90EF900895DF92EF92FF920F931F9341
:100D3000FC01E480F58006811781D18080818230BA
:100D400048F480E090E0A0E1B0E0E82AF92A0A2B1C
:100D50001B2BA5C0843009F49FC0823021F4EE24FF
:100D6000FF24870105C0E114F1040105110519F400
:100D7000E0E0F0E096C0628173819FEF623879070E
:100D80000CF05BC022E83FEF261B370B2A31310500
:100D90002CF020E030E040E050E02AC0B801A7018C
:100DA000022E04C076956795579547950A94D2F719
:100DB00081E090E0A0E0B0E004C0880F991FAA1F76
:100DC000BB1F2A95D2F70197A109B1098E219F2156
:100DD000A023B1230097A105B10521F081E090E0A7
:100DE000A0E0B0E09A01AB01282B392B4A2B5B2BFA
:100DF000DA01C9018F779070A070B07080349105CE
:100E0000A105B10539F427FF09C0205C3F4F4F4FC2
:100E10005F4F04C0215C3F4F4F4F5F4FE0E0F0E079
:100E20002030A0E03A07A0E04A07A0E45A0710F0FB
:100E3000E1E0F0E079018A0127C06038710564F5CE
:100E4000FB01E158FF4FD801C7018F779070A07068
:100E5000B07080349105A105B10539F4E7FE0DC0ED
:100E600080E490E0A0E0B0E004C08FE390E0A0E078
:100E7000B0E0E80EF91E0A1F1B1F17FF05C01695EC
:100E80000795F794E794319687E016950795F794C0
:100E9000E7948A95D1F705C0EE24FF248701EFEF90
:100EA000F0E06E2F679566276795902F9F77D79410
:100EB000DD24D7948E2F8695492F462B582F5D29F8
:100EC000B701CA011F910F91FF90EF90DF90089535
:100ED000FC01DB01408151812281622F6F7770E03C
:100EE000221F2227221F9381892F880F822B282FD0
:100EF00030E0991F9927991F11969C9311972115FE
:100F00003105A9F5411551056105710511F482E01E
:100F100037C082E89FEF13969C938E9312979A01A5
:100F2000AB0167E0220F331F441F551F6A95D1F7AD
:100F300083E08C930DC0220F331F441F551F129660
:100F40008D919C911397019713969C938E93129772
:100F5000203080E0380780E0480780E4580758F3E5
:100F600014962D933D934D935C93179708952F3FBF
:100F7000310579F4411551056105710519F484E0D5
:100F80008C93089564FF03C081E08C9312C01C927F
:100F900010C02F57304013963C932E93129783E046
:100FA0008C9387E0440F551F661F771F8A95D1F7F2
:100FB000706414964D935D936D937C931797089589
:100FC000AA1BBB1B51E107C0AA1FBB1FA617B7076F
:100FD00010F0A61BB70B881F991F5A95A9F780958B
:100FE0009095BC01CD01089597FB092E07260AD0E4
:100FF00077FD04D0E5DF06D000201AF470956195E6
:101000007F4F0895F6F7909581959F4F08952F9201
:101010003F924F925F926F927F928F929F92AF9288
:10102000BF92CF92DF92EF92FF920F931F93CF93D5
:10103000DF93CDB7DEB7CA1BDB0B0FB6F894DEBF6C
:101040000FBECDBF09942A88398848885F846E8492
:101050007D848C849B84AA84B984C884DF80EE80DC
:10106000FD800C811B81AA81B981CE0FD11D0FB6E5
:10107000F894DEBF0FBECDBFED010895F894FFCF09
:101080000101000000000000000000000102020356
:10109000030303040404040404040405050505050E
:1010A00005050505050505050505050606060606EB
:1010B00006060606060606060606060606060606D0
:1010C00006060606060606060606060707070707BB
:1010D00007070707070707070707070707070707A0
:1010E0000707070707070707070707070707070790
:1010F0000707070707070707070707070707070780
:10110000070707070707070707070708080808086A
:10111000080808080808080808080808080808084F
:10112000080808080808080808080808080808083F
:10113000080808080808080808080808080808082F
:10114000080808080808080808080808080808081F
:10115000080808080808080808080808080808080F
:1011600008080808080808080808080808080808FF
:1011700008080808080808080808080808080808EF
:0C1180000808080808080808080808000B
:00000001FF
