:100000000C9446000C9465000C940A030C94650053
:100010000C9465000C9465000C9465000C946500CC
:100020000C9465000C942B030C9465000C946500F3
:100030000C9400030C9465000C9465000C94C502AC
:100040000C9465000C9465000C9465000C9465009C
:100050000C9465000C9465000C9465000C9465008C
:100060000C9465000C9465000C9465000C9465007C
:100070000C9465000C9465000C9465000C9465006C
:100080000C9465000C9465000C94650011241FBE4F
:10009000CFEFD0E1DEBFCDBF11E0A0E0B1E0E0EBFB
:1000A000F6E000E00BBF02C007900D92A030B10750
:1000B000D9F711E0A0E0B1E001C01D92A430B10772
:1000C000E1F70E949F020C9456030C940000E2E6B4
:1000D000F0E080818860808320EA3FE0C9010197D9
:1000E000F1F78081877F8083C9010197F1F7089537
:1000F0001F93182FE2E6F0E080818D7F808380815E
:100100008B7F80838081877F808383B18F7083B969
:1001100093B1812F807F892B83B90E94670083B1BF
:100120008F7083B983B11295107F812B83B90E94A0
:1001300067001F91089581E00E94780008951F9341
:10014000182FE2E6F0E080818260808380818B7FDF
:1001500080838081877F808383B18F7083B993B1DF
:10016000812F807F892B83B90E94670083B18F70B4
:1001700083B983B11295107F812B83B90E946700E8
:100180001F9108950F931F9382B1806F82B9E1E6AA
:10019000F0E080818E608083E2E6F0E080818B7FFA
:1001A000808380E30E94780080E29EE40197F1F76B
:1001B00080E30E94780000EA1FE0C8010197F1F790
:1001C00080E30E947800C8010197F1F780E20E9465
:1001D0007800C8010197F1F70E9467000E9467004C
:1001E0000E94670088E20E9478008CE00E947800FC
:1001F00086E00E94780081E00E94780082E00E9400
:1002000078001F910F910895EF92FF920F931F9323
:10021000CF93DF93C0E0D0E090E8E92EF12C082FD7
:1002200010E0C7010C2E02C0959587950A94E2F75D
:1002300080239123892B11F081E301C080E30E9488
:100240009F002196C830D10561F7DF91CF911F91B2
:100250000F91FF90EF900895CF93DF93EC0187E229
:10026000C031D80770F0CE0160E177E20E9442030E
:10027000CB016AE070E00E944203805D0E949F0013
:1002800004C083E0C83ED80770F0CE0168EE73E08A
:100290000E944203CB016AE070E00E944203805D4D
:1002A0000E949F0003C0C436D10570F0CE0164E601
:1002B00070E00E944203CB016AE070E00E944203BA
:1002C000805D0E949F0003C0CA30D10568F0CE0156
:1002D0006AE070E00E944203CB016AE070E00E9495
:1002E0004203805D0E949F00CE016AE070E00E94A0
:1002F0004203805D0E949F00DF91CF910895CF93CC
:10030000DF93EC0187E2C031D80770F0CE0160E1E5
:1003100077E20E944203CB016AE070E00E94420350
:10032000805D0E949F0004C083E0C83ED80770F043
:10033000CE0168EE73E00E944203CB016AE070E0F8
:100340000E944203805D0E949F0003C0C436D10515
:1003500068F0CE0164E670E00E944203CB016AE0DF
:1003600070E00E944203805D0E949F00CE016AE01F
:1003700070E00E944203CB016AE070E00E944203F9
:10038000805D0E949F008EE20E949F00CE016AE085
:1003900070E00E944203805D0E949F00DF91CF9138
:1003A0000895813051F0813028F0823049F0833057
:1003B00061F409C0862F805808C0862F805405C07C
:1003C000862F805702C0862F80530E9478000895A0
:1003D0001F93CF93DF93EC0110E01AC00E949F009F
:1003E0001F5F1F3161F0103218F41F3081F405C017
:1003F0001F3239F01F3359F406C081E005C082E096
:1004000003C083E001C080E060E00E94D10121963A
:100410008881882319F7DF91CF911F9108951F9349
:1004200060E00E94D10110E080E20E949F001F5F07
:100430001F30D1F71F91089580E40E9478008AE070
:100440000E949F008FE10E949F008FE10E949F0009
:100450008EE00E949F0084E00E949F0080E00E9446
:100460009F0080E00E949F0080E00E949F0080E843
:100470000E94780088E40E9478008CE00E949F002F
:100480008EE10E949F008CE00E949F008EE10E94FE
:100490009F008CE00E949F008CE00E949F0082E100
:1004A0000E949F008BE10E949F0080E80E947800DC
:1004B0000895E4E6F0E080818F618083089587B33A
:1004C000806F87BB81B3806F81BB089592B39F70AB
:1004D00092BB98B39F7098BB22B3982F907F922BBA
:1004E00092BB98B38295807F982B98BB08958FE438
:1004F00081BF13BE83B7886083BF87B7826087BF21
:1005000008950E94C200E4E6F0E080818F6180835C
:1005100087B3806F87BB81B3806F81BB889A8998CE
:100520000E94770287E083BD85B5886085BD87B767
:10053000806887BF89B7826089BF789408950E94D8
:10054000810283B7816083BF909AFFCF8EB58860A8
:100550008EBD87B7806187BF87E090E09BBD8ABD75
:100560000895889A8998089589B7826089BF089507
:1005700083B7816083BF909A089587B78D7F87BFC7
:10058000909880E10E94660208951F920F920FB624
:100590000F920BB60F9211242F933F934F935F93BB
:1005A0006F937F938F939F93AF93BF93EF93FF933B
:1005B0000E94BD0281E00E9466028091000190913C
:1005C00001010196909301018093000185B581603E
:1005D00085BDFF91EF91BF91AF919F918F917F91D9
:1005E0006F915F914F913F912F910F900BBE0F90A4
:1005F0000FBE0F901F90189585B5816085BD089539
:100600001F920F920FB60F9211240F900FBE0F90F2
:100610001F9018951F920F920FB60F92112419BEBA
:1006200017BE0F900FBE0F901F90189582E091E0BB
:10063000089517BE08958FEF90E00E942C01089551
:1006400087E083BD85B5886085BD87B7806887BF33
:10065000089517BE08951F920F920FB60F9211249E
:100660008F939F9380910001909101010196909347
:100670000101809300019F918F910F900FBE0F9009
:100680001F901895AA1BBB1B51E107C0AA1FBB1FD7
:10069000A617B70710F0A61BB70B881F991F5A950E
:1006A000A9F780959095BC01CD010895F894FFCFEE
:00000001FF
