:100000000C9446000C9465000C9445030C94650018
:100010000C9465000C9465000C9465000C946500CC
:100020000C9465000C9477020C9465000C946500A8
:100030000C9465000C9465000C9465000C94D90236
:100040000C9465000C9465000C9465000C9465009C
:100050000C9465000C9465000C9465000C9465008C
:100060000C9465000C9465000C9465000C9465007C
:100070000C9465000C9465000C9465000C9465006C
:100080000C9465000C9465000C94650011241FBE4F
:10009000CFEFD0E1DEBFCDBF11E0A0E0B1E0ECE4F6
:1000A000F7E000E00BBF02C007900D92A230B1074D
:1000B000D9F711E0A2E0B1E001C01D92A630B1076E
:1000C000E1F70E94D0020C94A4030C940000E2E635
:1000D000F0E080818860808320EA3FE0C9010197D9
:1000E000F1F78081877F8083C9010197F1F7089537
:1000F0001F93182FE2E6F0E080818D7F808380815E
:100100008B7F80838081877F808383B18F7083B969
:1001100093B1812F807F892B83B90E94670083B1BF
:100120008F7083B983B11295107F812B83B90E94A0
:1001300067001F91089581E00E94780008951F9341
:10014000182FE2E6F0E080818260808380818B7FDF
:1001500080838081877F808383B18F7083B993B1DF
:10016000812F807F892B83B90E94670083B18F70B4
:1001700083B983B11295107F812B83B90E946700E8
:100180001F9108950F931F9382B1806F82B9E1E6AA
:10019000F0E080818E608083E2E6F0E080818B7FFA
:1001A000808380E30E94780080E29EE40197F1F76B
:1001B00080E30E94780000EA1FE0C8010197F1F790
:1001C00080E30E947800C8010197F1F780E20E9465
:1001D0007800C8010197F1F70E9467000E9467004C
:1001E0000E94670088E20E9478008CE00E947800FC
:1001F00086E00E94780081E00E94780082E00E9400
:1002000078001F910F910895EF92FF920F931F9323
:10021000CF93DF93C0E0D0E090E8E92EF12C082FD7
:1002200010E0C7010C2E02C0959587950A94E2F75D
:1002300080239123892B11F081E301C080E30E9488
:100240009F002196C830D10561F7DF91CF911F91B2
:100250000F91FF90EF900895CF93DF93EC0187E229
:10026000C031D80770F0CE0160E177E20E949003C0
:10027000CB016AE070E00E949003805D0E949F00C5
:1002800004C083E0C83ED80770F0CE0168EE73E08A
:100290000E949003CB016AE070E00E949003805DB1
:1002A0000E949F0003C0C436D10570F0CE0164E601
:1002B00070E00E949003CB016AE070E00E9490031E
:1002C000805D0E949F0003C0CA30D10568F0CE0156
:1002D0006AE070E00E949003CB016AE070E00E9447
:1002E0009003805D0E949F00CE016AE070E00E9452
:1002F0009003805D0E949F00DF91CF910895CF937E
:10030000DF93EC0187E2C031D80770F0CE0160E1E5
:1003100077E20E949003CB016AE070E00E949003B4
:10032000805D0E949F0004C083E0C83ED80770F043
:10033000CE0168EE73E00E949003CB016AE070E0AA
:100340000E949003805D0E949F0003C0C436D105C7
:1003500068F0CE0164E670E00E949003CB016AE091
:1003600070E00E949003805D0E949F00CE016AE0D1
:1003700070E00E949003CB016AE070E00E9490035D
:10038000805D0E949F008EE20E949F00CE016AE085
:1003900070E00E949003805D0E949F00DF91CF91EA
:1003A0000895813051F0813028F0823049F0833057
:1003B00061F409C0862F805808C0862F805405C07C
:1003C000862F805702C0862F80530E9478000895A0
:1003D0001F93CF93DF93EC0110E01AC00E949F009F
:1003E0001F5F1F3161F0103218F41F3081F405C017
:1003F0001F3239F01F3359F406C081E005C082E096
:1004000003C083E001C080E060E00E94D10121963A
:100410008881882319F7DF91CF911F9108951F9349
:1004200060E00E94D10110E080E20E949F001F5F07
:100430001F30D1F71F91089580E40E9478008AE070
:100440000E949F008FE10E949F008FE10E949F0009
:100450008EE00E949F0084E00E949F0080E00E9446
:100460009F0080E00E949F0080E00E949F0080E843
:100470000E94780088E40E9478008CE00E949F002F
:100480008EE10E949F008CE00E949F008EE10E94FE
:100490009F008CE00E949F008CE00E949F0082E100
:1004A0000E949F008BE10E949F0080E80E947800DC
:1004B0000895E4E6F0E080818F618083089587B33A
:1004C000806F87BB81B3806F81BB089592B39F70AB
:1004D00092BB98B39F7098BB22B3982F907F922BBA
:1004E00092BB98B38295807F982B98BB08951F92FA
:1004F0000F920FB60F9211248F939F938091020158
:1005000090910301449690930301809302019F917F
:100510008F910F900FBE0F901F9018958FE981BF9C
:1005200013BE83B7886083BF87B7826087BF089593
:100530000E94C200E4E6F0E080818F61808387B38F
:10054000806F87BB81B3806F81BB889A89980E9436
:100550008E0284E083BD85B5886085BD87B78068DD
:1005600087BFEAE6F0E080818C60808389B7826093
:1005700089BF78940895889A89980895EAE6F0E00A
:1005800080818C60808389B7826089BF089512BEA4
:1005900083B7816083BF909A81E00E9466020895CC
:1005A0000E9498020E94C702809163008130E1F7A7
:1005B000F9CF1F920F920FB60F920BB60F92112424
:1005C0002F933F934F935F936F937F938F939F935B
:1005D000AF93BF93EF93FF9387B78D7F87BF9098BB
:1005E00082E00E946602FF91EF91BF91AF919F91CF
:1005F0008F917F916F915F914F913F912F910F90CC
:100600000BBE0F900FBE0F901F90189587B78D7F70
:1006100087BF9098089585B5836085BD83E00E946B
:1006200066020895EAE6F0E080818C608083089598
:10063000EAE6F0E01082808188608083089584E09B
:1006400091E0089584E083BD85B5886085BD87B756
:10065000806887BF089587B78F7787BF84E00E943F
:100660006602089580E060E00E94D101809102015D
:10067000909103016AE370E00E949003CB010E9415
:100680002C0108950E94320308951F920F920FB615
:100690000F920BB60F9211242F933F934F935F93BA
:1006A0006F937F938F939F93AF93BF93CF93DF937A
:1006B000EF93FF9318BEC0910001D0910101C0FFDC
:1006C0000AC00E940B0310926A0080916A00886041
:1006D00080936A000BC00E942B0310926A008091E5
:1006E0006A00886080936A000E9432032196D0934A
:1006F0000101C0930001FF91EF91DF91CF91BF9174
:10070000AF919F918F917F916F915F914F913F91A9
:100710002F910F900BBE0F900FBE0F901F9018954A
:10072000AA1BBB1B51E107C0AA1FBB1FA617B70717
:1007300010F0A61BB70B881F991F5A95A9F7809533
:0C0740009095BC01CD010895F894FFCF06
:02074C000100AA
:00000001FF
