:100000000C9446000C945D000C945D000C945D0013
:100010000C945D000C945D000C945D000C945D00EC
:100020000C945D000C945D000C945D000C945D00DC
:100030000C945D000C945D000C945D000C94B60271
:100040000C945D000C945D000C945D000C945D00BC
:100050000C945D000C945D000C945D000C945D00AC
:100060000C945D000C945D000C945D000C945D009C
:100070000C945D000C945D000C945D000C945D008C
:100080000C945D000C945D000C945D0011241FBE67
:10009000CFEFD0E1DEBFCDBF11E0A0E0B1E0E0E105
:1000A000F6E000E00BBF02C007900D92A830B10748
:1000B000D9F70E948B020C9406030C940000E2E630
:1000C000F0E080818860808320EA3FE0C9010197E9
:1000D000F1F78081877F8083C9010197F1F7089547
:1000E0001F93182FE2E6F0E080818D7F808380816E
:1000F0008B7F80838081877F808383B18F7083B97A
:1001000093B1812F807F892B83B90E945F0083B1D7
:100110008F7083B983B11295107F812B83B90E94B0
:100120005F001F91089581E00E94700008951F9361
:10013000182FE2E6F0E080818260808380818B7FEF
:1001400080838081877F808383B18F7083B993B1EF
:10015000812F807F892B83B90E945F0083B18F70CC
:1001600083B983B11295107F812B83B90E945F0000
:100170001F9108950F931F9382B1806F82B9E1E6BA
:10018000F0E080818E608083E2E6F0E080818B7F0A
:10019000808380E30E94700080E29EE40197F1F783
:1001A00080E30E94700000EA1FE0C8010197F1F7A8
:1001B00080E30E947000C8010197F1F780E20E947D
:1001C0007000C8010197F1F70E945F000E945F0074
:1001D0000E945F0088E20E9470008CE00E94700024
:1001E00086E00E94700081E00E94700082E00E9420
:1001F00070001F910F910895EF92FF920F931F933C
:10020000CF93DF93C0E0D0E090E8E92EF12C082FE7
:1002100010E0C7010C2E02C0959587950A94E2F76D
:1002200080239123892B11F081E301C080E30E9498
:1002300097002196C830D10561F7DF91CF911F91CA
:100240000F91FF90EF900895CF93DF93EC0187E239
:10025000C031D80770F0CE0160E177E20E94F2026F
:10026000CB016AE070E00E94F202805D0E9497007C
:1002700004C083E0C83ED80770F0CE0168EE73E09A
:100280000E94F202CB016AE070E00E94F202805DFF
:100290000E94970003C0C436D10570F0CE0164E619
:1002A00070E00E94F202CB016AE070E00E94F2026C
:1002B000805D0E94970003C0CA30D10568F0CE016E
:1002C0006AE070E00E94F202CB016AE070E00E94F6
:1002D000F202805D0E949700CE016AE070E00E9409
:1002E000F202805D0E949700DF91CF910895CF9335
:1002F000DF93EC0187E2C031D80770F0CE0160E1F6
:1003000077E20E94F202CB016AE070E00E94F20202
:10031000805D0E94970004C083E0C83ED80770F05B
:10032000CE0168EE73E00E94F202CB016AE070E059
:100330000E94F202805D0E94970003C0C436D1057E
:1003400068F0CE0164E670E00E94F202CB016AE040
:1003500070E00E94F202805D0E949700CE016AE088
:1003600070E00E94F202CB016AE070E00E94F202AB
:10037000805D0E9497008EE20E949700CE016AE0A5
:1003800070E00E94F202805D0E949700DF91CF91A1
:100390000895813051F0813028F0823049F0833067
:1003A00061F409C0862F805808C0862F805405C08C
:1003B000862F805702C0862F80530E9470000895B8
:1003C0001F93CF93DF93EC0110E01AC00E949700B7
:1003D0001F5F1F3161F0103218F41F3081F405C027
:1003E0001F3239F01F3359F406C081E005C082E0A6
:1003F00003C083E001C080E060E00E94C901219653
:100400008881882319F7DF91CF911F9108951F9359
:1004100060E00E94C90110E080E20E9497001F5F27
:100420001F30D1F71F91089580E40E9470008AE088
:100430000E9497008FE10E9497008FE10E94970031
:100440008EE00E94970084E00E94970080E00E9466
:10045000970080E00E94970080E00E94970080E86B
:100460000E94700088E40E9470008CE00E94970057
:100470008EE10E9497008CE00E9497008EE10E941E
:1004800097008CE00E9497008CE00E94970082E128
:100490000E9497008BE10E94970080E80E94700004
:1004A0000895E4E6F0E080818F618083089587B34A
:1004B000806F87BB81B3806F81BB089592B39F70BB
:1004C00092BB98B39F7098BB22B3982F907F922BCA
:1004D00092BB98B38295807F982B98BB08958FE943
:1004E00081BF88E083BF83B7876083BF87B782609F
:1004F00087BF08950E94BA00E4E6F0E080818F6132
:1005000080830E946F0287B3806F87BB81B3806F47
:1005100081BB78940895DF93CF9300D000D000D0B2
:10052000CDB7DEB70E947A02DE011196E0E0F1E07D
:1005300086E001900D928150E1F7CE0101960E9474
:10054000E0010E946F0212BE83B7816083BF83B750
:1005500091E0892783BFFFCF12BE83B7816083BF3D
:10056000089583B791E0892783BF08951F920F9262
:100570000FB60F920BB60F9211242F933F934F9308
:100580005F936F937F938F939F93AF93BF93CF931B
:10059000DF93EF93FF93C0910601D0910701C0FF55
:1005A00009C08FEF0E945E022196D0930701C0938D
:1005B000060103C080E00E945E02FF91EF91DF918F
:1005C000CF91BF91AF919F918F917F916F915F91EB
:1005D0004F913F912F910F900BBE0F900FBE0F9038
:1005E0001F901895AA1BBB1B51E107C0AA1FBB1F78
:1005F000A617B70710F0A61BB70B881F991F5A95AF
:10060000A9F780959095BC01CD010895F894FFCF8E
:080610007465737A74000100A7
:00000001FF
